:0400000007EF00F016
:10000800098209ED00F05CEF00F00600F2AA0FEF9C
:1000180000F011EF00F02FEF00F0F2A416EF00F05F
:1000280018EF00F02FEF00F08AB01DEF00F020EF7E
:1000380000F0010E21EF00F0000EFF0A016E8A5059
:100048000118FE0B01188A6E480ED76EE40ED66EA4
:10005800F294074A082A0992110093908A90929084
:10006800899063EC00F067EC00F04EEC00F008BEFD
:1000780047EF00F0085009E10A0E075CD8A047EFE7
:1000880000F049EF00F03BEF00F089803BEF00F013
:1000980007EF00F0D59ED59CD59AD598D596D584EE
:1000A800D582D580480ED76EE40ED66ED58E120056
:1000B800086A076A09900992000131EF00F0D09EA2
:0C00C800F28EF28C1200F28AF294120008
:020000040020DA
:08000000FFFFFFFFFFFFFFFF00
:020000040030CA
:0E000000040E181EFF8381FF0FC00FE00F409B
:00000001FF
