:040000000CEF06F00B
:1008000000202020202020202049324320202020AA
:1008100020202020200020202020202020204C43A9
:1008200044202020202020202020002D2D2D2D2D83
:100830002D2D5052554542412D2D2D2D2D2D2D0064
:100840002D2D2D2D2D504943313846343535302D41
:100850002D2D2D2D0000EDEC05F003EC06F0000E23
:10086000016E4E0EACEC05F0000EDFEC05F0FAEC7C
:1008700005F0620E0B6E660EE82EFED70B2EFCD72F
:10088000030E066E000E23EC05F0210E0B6E760EA5
:10089000E82EFED70B2EFCD700D0030E066E000EFE
:1008A00023EC05F0210E0B6E760EE82EFED70B2EF4
:1008B000FCD700D0030E066E000E23EC05F0210ECF
:1008C0000B6E760EE82EFED70B2EFCD700D0020E54
:1008D000066E000E23EC05F0210E0B6E760EE82E50
:1008E000FED70B2EFCD700D0280E096E000ED1ECDF
:1008F00005F0210E0B6E760EE82EFED70B2EFCD7E0
:1009000000D0080E096E000ED1EC05F0210E0B6E22
:10091000760EE82EFED70B2EFCD700D0010E096E06
:10092000000ED1EC05F0210E0B6E760EE82EFED7F0
:100930000B2EFCD700D0060E096E000ED1EC05F090
:10094000210E0B6E760EE82EFED70B2EFCD700D0B4
:100950000F0E096E000ED1EC05F0210E0B6E760E17
:10096000E82EFED70B2EFCD700D01200106EEBEF56
:1009700004F00B50800F0B6E0BC009F0000ED1EC91
:1009800005F014EF05F00B50C00F0B6E0BC009F013
:10099000000ED1EC05F014EF05F00B50940F0B6E28
:1009A0000BC009F0000ED1EC05F014EF05F00B5070
:1009B000D40F0B6E0BC009F0000ED1EC05F014EF54
:1009C00005F00B50800F0B6E0BC009F0000ED1EC40
:1009D00005F014EF05F010500E6E0F6A0F50000A6C
:1009E000D8B4F5EF04F0E1EF04F00E50000AD8B4EB
:1009F000B9EF04F0010AD8B4C3EF04F0030AD8B485
:100A0000CDEF04F0010AD8B4D7EF04F0E1EF04F021
:100A10000CC0F6FF0DC0F7FF0800F5CF09F0010E7E
:100A2000D1EC05F00C4A0D2A0CC0F6FF0DC0F7FF03
:100A30000800F5500009D8A420EF05F022EF05F0DA
:100A400008EF05F01200076E06A029EF05F02BEF66
:100A500005F030EF05F008501009086E33EF05F08F
:100A60000850EF0B086E06A238EF05F03AEF05F0DC
:100A70003FEF05F008502009086E42EF05F00850DE
:100A8000DF0B086E06A447EF05F049EF05F04EEFC7
:100A900005F008504009086E51EF05F00850BF0BF3
:100AA000086E06A656EF05F058EF05F05DEF05F06D
:100AB00008508009086E60EF05F008507F0B086E43
:100AC000640EE82EFED70704D8A469EF05F06BEF9B
:100AD00005F070EF05F008500109086E73EF05F09E
:100AE0000850FE0B086E08500409C2EC05F0030E16
:100AF000E82EFED700F00850FB0BC2EC05F0120008
:100B00000F0EC16E2BEC04F0000E0B6E2B0E0C6E54
:100B1000080E0D6E000EB6EC04F0000E0B6E160EF5
:100B20000C6E080E0D6E010EB6EC04F0000E0B6E8E
:100B3000010E0C6E080E0D6E020EB6EC04F0000EE7
:100B40000B6E400E0C6E080E0D6E030EB6EC04F02C
:100B5000A8EF05F000EF00F0036E01C002F0010EF7
:100B600002160350FE0B0210046E04C0C9FFC59AA2
:100B7000C5889E969EA6BFEF05F0C1EF05F0BAEFBF
:100B800005F01200056E03EC06F0000E016E4E0E2D
:100B9000ACEC05F005500809DFEC05F0FAEC05F0C7
:100BA00012000A6E09380F0B066E0A5023EC05F08E
:100BB00009500F0B066E0A5023EC05F01200016E6F
:100BC00001C0C9FFC59AC5889E969EA6EAEF05F0AA
:100BD000ECEF05F0E5EF05F0120093809382C78EED
:100BE000C68AC686C694C692C690770EC86E000E98
:100BF000C56E1200C584C5B400EF06F002EF06F022
:100C0000FBEF05F01200C580C5B009EF06F00BEF51
:100C100006F004EF06F01200176A166A000EF86E6E
:060C2000000180EF05F069
:020000040020DA
:08000000FFFFFFFFFFFFFFFF00
:020000040030CA
:0E000000040E181EFF8381FF0FC00FE00F409B
:00000001FF
