:0400000055EF06F0C2
:1008000000202020202020204D4350343732352036
:100810002020202020002D2D2D2D2D504943313812
:1008200046343535302D2D2D2D2D000069EC06F088
:10083000000E276E4E0EF7EC05F0000E3AEC06F0B7
:1008400060EC06F0620E316E660EE82EFED7312E99
:10085000FCD7030E2C6E000E0CEC05F0210E316E51
:10086000760EE82EFED7312EFCD700D0030E2C6E6C
:10087000000E0CEC05F0210E316E760EE82EFED740
:10088000312EFCD700D0030E2C6E000E0CEC05F0C0
:10089000210E316E760EE82EFED7312EFCD700D019
:1008A000020E2C6E000E0CEC05F0210E316E760E51
:1008B000E82EFED7312EFCD700D0280E2F6E000E6A
:1008C0002CEC06F0210E316E760EE82EFED7312E7E
:1008D000FCD700D0080E2F6E000E2CEC06F0210E77
:1008E000316E760EE82EFED7312EFCD700D0010EE9
:1008F0002F6E000E2CEC06F0210E316E760EE82ED7
:10090000FED7312EFCD700D0060E2F6E000E2CEC39
:1009100006F0210E316E760EE82EFED7312EFCD772
:1009200000D00F0E2F6E000E2CEC06F0210E316E53
:10093000760EE82EFED7312EFCD700D01200366E90
:10094000D4EF04F03150800F316E31C02FF0000E23
:100950002CEC06F0FDEF04F03150C00F316E31C0C9
:100960002FF0000E2CEC06F0FDEF04F03150940F48
:10097000316E31C02FF0000E2CEC06F0FDEF04F0CC
:100980003150D40F316E31C02FF0000E2CEC06F038
:10099000FDEF04F03150800F316E31C02FF0000EAA
:1009A0002CEC06F0FDEF04F03650346E356A35500D
:1009B000000AD8B4DEEF04F0CAEF04F03450000AA5
:1009C000D8B4A2EF04F0010AD8B4ACEF04F0030AE3
:1009D000D8B4B6EF04F0010AD8B4C0EF04F0CAEFFF
:1009E00004F032C0F6FF33C0F7FF0800F5CF2FF058
:1009F000010E2CEC06F0324A332A32C0F6FF33C027
:100A0000F7FF0800F5500009D8A409EF05F00BEF37
:100A100005F0F1EF04F012002D6E2CA012EF05F09E
:100A200014EF05F019EF05F02E5010092E6E1CEF93
:100A300005F02E50EF0B2E6E2CA221EF05F023EFC8
:100A400005F028EF05F02E5020092E6E2BEF05F053
:100A50002E50DF0B2E6E2CA430EF05F032EF05F098
:100A600037EF05F02E5040092E6E3AEF05F02E506C
:100A7000BF0B2E6E2CA63FEF05F041EF05F046EFC1
:100A800005F02E5080092E6E49EF05F02E507F0B99
:100A90002E6E640EE82EFED72D04D8A452EF05F07A
:100AA00054EF05F059EF05F02E5001092E6E5CEF62
:100AB00005F02E50FE0B2E6E2E5004091DEC06F094
:100AC000030EE82EFED700F02E50FB0B1DEC06F0B7
:100AD000120048EC06F016EC04F00DEC06F0000EE7
:100AE000316E160E326E080E336E000E9FEC04F05F
:100AF000000E316E010E326E080E336E010E9FEC49
:100B000004F0270E3D6E0D0E3C6E260EE82EFED72D
:100B10003C2EFCD73D2EFAD700D0000ED1EC05F0CC
:100B200027C025F028C026F025C02BF026C02CF0C9
:100B3000A9EC05F0020E3D6E450E3C6EAA0EE82EA5
:100B4000FED73C2EFCD73D2EFAD78DEF05F000EFF7
:100B500000F069EC06F0000E276EC00EF7EC05F011
:100B6000400E3AEC06F02BC02DF02CC02EF0040EF7
:100B70002F6ED8902E322D322F2EB9EF05F02D503A
:100B8000306E2BC02DF00F0E2D162D38F00B316E60
:100B900030503AEC06F031503AEC06F060EC06F0DA
:100BA00012002B6E2BC029F0D8902936D890293608
:100BB0003C0E2916C250030B2910C26EC282C2B26B
:100BC000E4EF05F0E6EF05F0DFEF05F00D0E296E1E
:100BD000FC0EE82EFED7292EFCD7C4502A6E296AB7
:100BE000C3502924276E000E2A20286E1200296E79
:100BF00027C028F0010E28162950FE0B28102A6E57
:100C00002AC0C9FFC59AC5889E969EA60AEF06F01F
:100C10000CEF06F005EF06F01200C292C280C19AF6
:100C2000C198C186C184C182C190C08EC09AC0885B
:100C3000C086C084C082C09012002B6E69EC06F0A2
:100C4000000E276E4E0EF7EC05F02B5008093AEC1B
:100C500006F060EC06F01200306E2F380F0B2C6E91
:100C600030500CEC05F02F500F0B2C6E30500CEC6C
:100C700005F01200276E27C0C9FFC59AC5889E9649
:100C80009EA645EF06F047EF06F040EF06F0120093
:100C900093809382C78EC68AC686C694C692C69033
:100CA000770EC86E000EC56E120000EE01F0260E23
:100CB000EE6AE806FDE1000EF86E000169EF05F04E
:100CC000C584C5B466EF06F068EF06F061EF06F084
:100CD0001200C580C5B06FEF06F071EF06F06AEF45
:040CE00006F0120008
:020000040020DA
:08000000FFFFFFFFFFFFFFFF00
:020000040030CA
:0E000000040E181EFF8381FF0FC00FE00F409B
:00000001FF
