:0400000027EF00F0F6
:100008001D82F6CF05F0F7CF06F0F8CF07F0F5CF51
:1000180008F09EA812EF00F014EF00F00DEF00F0CA
:10002800030E026E080E036E040E046EA5EC04F0B7
:100038009D9808C0F5FF07C0F8FF06C0F7FF05C088
:0A004800F6FF1D921100C6EF04F050
:1008000000D30F6173640000000E116E000E126EB3
:10081000000E136E000E146E0D500E100F101010FF
:10082000D8B415EF04F017EF04F04DEF04F0010E0B
:10083000156E21EF04F0D8900D360E360F361036B7
:10084000152A10AE26EF04F028EF04F01BEF04F099
:10085000D89011361236133614360D50095C0E50EE
:100860000A580F500B5810500C58D8A03AEF04F00B
:100870003CEF04F045EF04F00D50095E0E500A5AAB
:100880000F500B5A10500C5A1180D89010320F3262
:100890000E320D32152E28EF04F011C009F012C0EF
:1008A0000AF013C00BF014C00CF01200B886AC981C
:1008B000AB8E1804D8A45FEF04F061EF04F087EF6B
:1008C00004F0000E096E240E0A6EF40E0B6E000E7C
:1008D0000C6E16C00DF017C00EF00F6A106A04EC13
:1008E00004F0030E79EF04F0D8900C320B320A3288
:1008F0000932E82E74EF04F0FF0E09241B6EFF0E80
:100900000A201C6E1BC019F01C501A6EAC8419C052
:10091000AFFF1AC0B0FFAC9CAC8A1200CFEC04F061
:100920000F015E9D5E9F958C958ED4EC04F0D8EC03
:1009300004F0250E176E800E166E010E186E56EC22
:1009400004F0A1EF04F027EF00F0B1EF04F002C0D3
:10095000F6FF03C0F7FF0800F550BBEC04F0024AB5
:10096000032A04060428D8A4B8EF04F0BAEF04F070
:10097000A7EF04F01200016EACA2C1EF04F0C3EFC8
:1009800004F0BCEF04F001C0ADFF12001D901D92F9
:10099000000EF86E080EF76E00018EEF04F0D39093
:1009A000D382700ED3121200D09EF28EF28C1200FF
:0409B0009D8812000C
:020000040020DA
:08000000FFFFFFFFFFFFFFFF00
:020000040030CA
:0E00000000285E3CFFD385FF0FC00FE00F40CD
:00000001FF
