:0400000089EF3FF055
:107F12000001CFEF3FF0C580C5B092EF3FF094EF84
:107F22003FF08DEF3FF01200C584C5B49BEF3FF0E8
:107F32009DEF3FF096EF3FF0120093809382C78E41
:107F4200C68AC686C694C692C690770EC86E000EC2
:107F5200C56E1200016E01C0C9FFC59AC5889E9602
:107F62009EA6B6EF3FF0B8EF3FF0B1EF3FF0120040
:107F7200036E01C002F0010E02160350FE0B021046
:107F8200046E04C0C9FFC59AC5889E969EA6CCEF12
:107F92003FF0CEEF3FF0C7EF3FF012000F0EC16E81
:107FA2009EEC3FF0000E0D6E000E0C6E8CEC3FF05E
:107FB200000E016E400EB9EC3FF00C50ABEC3FF0FE
:107FC20095EC3FF00D0E0B6EAF0E0A6EB60EE82E5C
:107FD200FED70A2EFCD70B2EFAD700D00C4A0D2A58
:107FE2000DBEFAEF3FF00D04D8A0FAEF3FF0FCEF20
:0E7FF2003FF0D7EF3FF0D3EF3FF000EF00F08D
:020000040020DA
:08000000FFFFFFFFFFFFFFFF00
:020000040030CA
:0E000000040E181EFF8381FF0FC00FE00F409B
:00000001FF
