:0400000007EF00F016
:100008000A823BED00F070EF00F00F0EC16E949283
:100018008B929290899077EC00F07BEC00F064EC86
:1000280000F009BE21EF00F0095009E1020E085C5A
:10003800D8A021EF00F023EF00F015EF00F089B011
:1000480028EF00F02BEF00F0010E2CEF00F0000E6F
:10005800FF0A076E89500718FE0B0718896E000EF5
:10006800096E000E086E15EF00F007EF00F00600AD
:100078009DA041EF00F043EF00F062EF00F09EA07A
:1000880048EF00F04AEF00F062EF00F08BB24FEF5C
:1000980000F052EF00F0010E53EF00F0000EFF0ADF
:1000A800016E01468B500118FD0B01188B6E060E70
:1000B800CF6EF90ECE6E9E90084A092A0A92110058
:1000C800CD90CD8ECD92CD8ACD88CD96060ECF6EB1
:1000D800F90ECE6ECD801200096A086A0A900A925B
:1000E800000109EF00F0D09EF28EF28C12009D8084
:0400F8009E901200C4
:020000040020DA
:08000000FFFFFFFFFFFFFFFF00
:020000040030CA
:0E000000040E181EFF8381FF0FC00FE00F409B
:00000001FF
