:020000040000fa
:080000000001040000000000f3
:020000040000fa
:04000800c80100002b
:020000040000fa
:04000c00c801000027
:020000040000fa
:04001000c801000023
:020000040000fa
:04001400c80100001f
:020000040000fa
:04001800c80100001b
:020000040000fa
:04001c00c801000017
:020000040000fa
:04002000c801000013
:020000040000fa
:04002400c80100000f
:020000040000fa
:04002800c80100000b
:020000040000fa
:04002c00c801000007
:020000040000fa
:04003000c801000003
:020000040000fa
:04003400c8010000ff
:020000040000fa
:04003800c8010000fb
:020000040000fa
:04003c00c8010000f7
:020000040000fa
:04004000c8010000f3
:020000040000fa
:04004400c8010000ef
:020000040000fa
:04004800c8010000eb
:020000040000fa
:04004c00c8010000e7
:020000040000fa
:04005000c8010000e3
:020000040000fa
:04005400c8010000df
:020000040000fa
:04005800c8010000db
:020000040000fa
:04005c00c8010000d7
:020000040000fa
:04006000c8010000d3
:020000040000fa
:04006400c8010000cf
:020000040000fa
:04006800c8010000cb
:020000040000fa
:04006c00c8010000c7
:020000040000fa
:04007000c8010000c3
:020000040000fa
:04007400c8010000bf
:020000040000fa
:04007800c8010000bb
:020000040000fa
:04007c00c8010000b7
:020000040000fa
:04008000c8010000b3
:020000040000fa
:04008400c8010000af
:020000040000fa
:04008800c8010000ab
:020000040000fa
:04008c00c8010000a7
:020000040000fa
:04009000c8010000a3
:020000040000fa
:04009400c80100009f
:020000040000fa
:04009800c80100009b
:020000040000fa
:04009c00c801000097
:020000040000fa
:0400a000c801000093
:020000040000fa
:0400a400c80100008f
:020000040000fa
:0400a800c80100008b
:020000040000fa
:0400ac00c801000087
:020000040000fa
:0400b000c801000083
:020000040000fa
:0400b400c80100007f
:020000040000fa
:0400b800c80100007b
:020000040000fa
:0400bc00c801000077
:020000040000fa
:0400c000c801000073
:020000040000fa
:0400c400c80100006f
:020000040000fa
:0400c800c80100006b
:020000040000fa
:0400cc00c801000067
:020000040000fa
:0400d000c801000063
:020000040000fa
:0400d400c80100005f
:020000040000fa
:0400d800c80100005b
:020000040000fa
:04010800c80100002a
:020000040000fa
:04010c00c801000026
:020000040000fa
:04011000c801000022
:020000040000fa
:04011400c80100001e
:020000040000fa
:04011800c80100001a
:020000040000fa
:04011c00c801000016
:020000040000fa
:04012000c801000012
:020000040000fa
:04012400c80100000e
:020000040000fa
:04012800c80100000a
:020000040000fa
:04012c00c801000006
:020000040000fa
:04013000c801000002
:020000040000fa
:04013400c8010000fe
:020000040000fa
:04013800c8010000fa
:020000040000fa
:04013c00c8010000f6
:020000040000fa
:04014000c8010000f2
:020000040000fa
:04014400c8010000ee
:020000040000fa
:04014800c8010000ea
:020000040000fa
:04014c00c8010000e6
:020000040000fa
:04015000c8010000e2
:020000040000fa
:04015400c8010000de
:020000040000fa
:04015800c8010000da
:020000040000fa
:04015c00c8010000d6
:020000040000fa
:04016000c8010000d2
:020000040000fa
:04016400c8010000ce
:020000040000fa
:04016800c8010000ca
:020000040000fa
:04016c00c8010000c6
:020000040000fa
:04017000c8010000c2
:020000040000fa
:04017400c8010000be
:020000040000fa
:04017800c8010000ba
:020000040000fa
:04017c00c8010000b6
:020000040000fa
:04018000c8010000b2
:020000040000fa
:04018400c8010000ae
:020000040000fa
:04018800c8010000aa
:020000040000fa
:04018c00c8010000a6
:020000040000fa
:04019000c8010000a2
:020000040000fa
:04019400c80100009e
:020000040000fa
:04019800c80100009a
:020000040000fa
:04019c00c801000096
:020000040000fa
:0401a000c801000092
:020000040000fa
:0401a400c80100008e
:020000040000fa
:0401a800c80100008a
:020000040000fa
:0401ac00c801000086
:020000040000fa
:0401b000c801000082
:020000040000fa
:0401b400c80100007e
:020000040000fa
:0401b800c80100007a
:020000040000fa
:0401bc00c801000076
:020000040000fa
:0401c000c801000072
:020000040000fa
:0401c400c80100006e
:020000040000fa
:0401c800c80100006a
:020000040000fa
:0401cc00c801000066
:020000040000fa
:0401d000c801000062
:020000040000fa
:0401d400c80100005e
:020000040000fa
:0401d800c80100005a
:020000040000fa
:100200004f8020000eff20000e018800000000003b
:10021000000020000000e000020032000001200089
:1002200020028800140007005b0007000000e000c7
:1002300003003a0060422000010020000200370065
:100240000000200001002000810f7000010032003a
:1002500014000700000020000000e000020032004f
:1002600000000200000000009a03020000000000ed
:100270000040da000000fe004440a900e000200039
:100280000000e0000300320000002000a001880010
:100290004440a800000006008a1f78008b1f7800e9
:1002a0000000060091018800800478000000eb0047
:1002b0001a003700e284440032a0b4009905ba0065
:1002c000e284440032a0b4009906ba00e2844400fb
:1002d00032a0b4000006eb00476fde00fd07b2005d
:1002e000636ce10003003a00ebff07000000eb0045
:1002f0000a003700606ce10004003a00005deb008a
:100300008b05e900fdff3e00040037006168e10055
:10031000010032000086eb000b00070019c7ba008d
:100320001905ba000e04e00003003a000a00e000dc
:10033000e0ff3a0000000600fe07b2009e018800c0
:100340008a047800f5ff3700395dba008b05e900b3
:100350000c003200295dba008b05e900080032006c
:100360000c00e00003003a00e284440032a0b40034
:10037000f5ff370019ddba008b05e900faff3a00f6
:100380008904e800e184440032a0b40000000600c3
:0c0390000040da000000fe000000050044
:020000040000fa
:10039c00505200005545000042410000204400002e
:0c03ac0053500000494300000000000016
:020000040000fa
:1003b8000200fa00004f78001e80fb006100600018
:1003c800004078000004e00002003200ca42a800a1
:1003d80001003700ca42a9001e80fb0062006000cd
:1003e8000000e00002003200ca62a80001003700e5
:1003f800ca62a9001e80fb00640060000000e000e3
:1004080002003200ca82a80001003700ca82a9008f
:100418001e80fb00680060000000e000020032005f
:10042800caa2a80001003700caa2a9000080fa00e9
:10043800000006000200fa00004f7800ca02a90076
:10044800ca02a8001e407800d9ff070000882300d0
:1004580011002000ed000700ca02a9000080fa0080
:10046800000006000000fa003116800000fc2f0092
:1004780000806000301688005116800000fc2f00b4
:10048800008060005016880030c0b300e9ff070004
:1004980030c0b300e7ff070030c0b300e5ff070036
:1004a80020c0b300e3ff070020c0b300e1ff07004e
:1004b80080c0b300dfff07000040eb00ddff07004e
:1004c80080c0b300dbff07000040eb00d9ff070046
:1004d80010c0b300d7ff07000040eb00d5ff0700ae
:1004e800c0c0b300d3ff07000080fa000000060078
:1004f8000400fa000e81e800004978006300470014
:1005080001487800ca22a90063004700104078001b
:100518000080fb00e20f50001b003200e20f500089
:1005280003003c00e10f500006003200490037008c
:10053800e30f500025003200e40f50003400320071
:10054800440037000e80e8009040780000c8b300ef
:1005580000cf40000e80e800104078000080fb00cb
:100568000008b000c480de000e00e80001487800f2
:100578000e00e80010407800aeff07001e4078002b
:10058800acff0700330037000e80e8009040780089
:1005980000ccb30000cf40000e80e8001040780087
:1005a8000080fb00000cb000c480de000e00e800f4
:1005b800014878000e00e800104078009dff070011
:1005c8001e4078009bff0700220037000e80e800dd
:1005d8009040780040c9b30000cf40000e80e8008a
:1005e800104078000080fb004009b000c480de00a5
:1005f8000e00e800014878000e00e800104078007e
:100608008cff07001e4078008aff070011003700a2
:100618000e80e8009040780040cdb30000cf400045
:100628000e80e800104078000080fb00400db0000c
:10063800c480de000e00e800014878000e00e800e3
:10064800104078007bff07001e40780079ff070004
:10065800000000000080fa00000006000400fa0014
:100668008e80e800804878000e80e800104078000e
:100678000000fb004480de0000407800004f780056
:100688000e00e8008e80e80011487800ca22a80011
:100698001e40780067ff07000e00e8001040780051
:1006a80064ff07000080fa00000006000400fa005a
:1006b8008e80e800800878000e80e800100f78002f
:1006c800040037001e007800104078001e0fe80074
:1006d800e2ff07001e007800104078000004e000e8
:1006e800f8ff3a000080fa00000006000000fa0057
:1006f800ca22a9000040eb004eff070010c0b3005b
:100708004cff07000080fa00000006000000fa0015
:10071800ca22a9000040eb0046ff070020c0b30032
:1007280044ff07000080fa00000006000400fa00f9
:10073800000f78000e80e8000108780049ff0700e4
:1007480010c0b30001000700fdff37000200fa00e7
:10075800004f78001e4078000004a2000004e0006a
:100768001300320080c0b30000e8b7000d00370066
:1007780000c8bf0011c0b3005dff0700e01c2800df
:10078800caff070000b02100710b20001f000700fe
:10079800d6ff0700ddff070000c8bf000040e900e2
:1007a80000e8b70000c8bf000004e000f0ff3a000e
:1007b8001e4078000004e000120032000068ef00dc
:1007c8000d00370000c8bf0011c0b30048ff070084
:1007d800e01c2800b5ff070000b02100710b2000c5
:1007e8000a000700c1ff0700c8ff070000c8bf00d4
:1007f8000040e80000e8b70000c8bf00e74f50001d
:0c080800f0ff36000080fa00000006003f
:020000040000fa
:10081400f03fb1000180b10006003500ee0309008d
:1008240000000000403fb1000180b100fbff3d002b
:100834001000b000203fb000020035000080090025
:080844000000000000000600a6
:020000040000fa
:10084c000008000002000000000000000208000088
:10085c000200000002000000010000000000000087
:020000040000fa
:0200000401f009
:04000000f37f00008a
:020000040000fa
:0200000401f009
:04000400ff7f00007a
:020000040000fa
:0200000401f009
:040008007dff000078
:020000040000fa
:0200000401f009
:04001400ffffff00eb
:020000040000fa
:0200000401f009
:04001800ffff0000e6
:00000001FF
