:0400000086EF1CF07B
:10080000004C4543545552412041444300252E306D
:10081000326600494E46004E414E00696E66006EDB
:07082000616E006C66000030
:10082800000E00017A6F000E796F57C08BF058C028
:100838008CF059C08DF05AC08EF08EBF28EF04F0AE
:1008480026EF04F03EEF04F0000E7A6F010E796F88
:100858008BC001F08CC002F08DC003F08EC004F094
:100868000AEC1CF001C08BF002C08CF003C08DF0C4
:1008780004C08EF0000E0001926F000E916FD7C079
:100888007DF0D8C07EF079517A11D8A44EEF04F0EB
:1008980050EF04F057EF04F0DBA555EF04F057EFE5
:1008A80004F071EF04F079517A11D8A45EEF04F0E6
:1008B80060EF04F066EF04F0000E666F2B0E656FB4
:1008C8006AEF04F0000E666F2D0E656F65C000F1CB
:1008D800914B922B7D07D8A07E078BC001F08CC06E
:1008E80002F08DC003F08EC004F013EC17F0010481
:1008F8000210D8A482EF04F084EF04F0CEEF04F0E5
:10090800BF0E0001606FFF0E616F5B50626F636B1B
:100918006051622761516323635107E11A0E625DDA
:10092800D8B099EF04F09BEF04F0A9EF04F0000EA3
:100938009125016E010E9221026E130E036E080EB0
:10094800046EDAEC1AF0B5EF04F0000E9125016E92
:10095800010E9221026E1B0E036E080E046EDAEC75
:100968001AF00001FD0E7D27FF0E7E2355C011F001
:1009780056C012F0000E136E010E146E7DC015F0F5
:100988007EC016F0DAEC18F011C055F012C056F01F
:1009980018EF0AF08BC001F08CC002F08DC003F094
:1009A8008EC004F013EC17F001500210D8A4DFEF4A
:1009B80004F0E1EF04F014EF05F0BF0E0001606FE2
:1009C800FF0E616F5B50626F636B6051622761510C
:1009D8006323635107E11A0E625DD8B0F6EF04F0A5
:1009E800F8EF04F006EF05F0000E9125016E010EF8
:1009F8009221026E170E036E080E046EDAEC1AF0DE
:100A0800B5EF04F0000E9125016E010E9221026EE1
:100A18001F0E036E080E046EDAEC1AF0B5EF04F040
:100A2800000E0001936F000E946F800E956F3F0EBD
:100A3800966F000E906F000E8F6F8BC001F08CC008
:100A480002F08DC003F08EC004F0000E056E000E9B
:100A5800066E000E076E000E086E54EC1AF0D8B041
:100A680038EF05F03AEF05F0BDEF05F059EF05F066
:100A780093C00FF094C010F095C011F096C012F01A
:100A8800000E136E000E146E200E156E410E166EBB
:100A980094EC0EF00FC093F010C094F011C095F0D4
:100AA80012C096F000018F4B902B8BC028F08CC0A1
:100AB80029F08DC02AF08EC02BF0000E136E000EA8
:100AC800146E200E156E410E166E93C00FF094C072
:100AD80010F095C011F096C012F094EC0EF00FC013
:100AE8002CF010C02DF011C02EF012C02FF010EC19
:100AF80016F0D8B082EF05F084EF05F03CEF05F072
:100B0800A4EF05F093C028F094C029F095C02AF00E
:100B180096C02BF0000E2C6E000E2D6E200E2E6E41
:100B2800410E2F6EA9EC10F028C093F029C094F064
:100B38002AC095F02BC096F000018F07D8A0900727
:100B48008BC028F08CC029F08DC02AF08EC02BF005
:100B580093C02CF094C02DF095C02EF096C02FF0C5
:100B680010EC16F0D8A0BBEF05F0BDEF05F086EF4E
:100B780005F05BC007F0086A86EC1BF0075000011F
:100B8800806F80C07FF0670E8019D8A4CEEF05F083
:100B9800D0EF05F0F6EF05F0D951DA11D8A4D7EF68
:100BA80005F0D9EF05F0DDEF05F0000EDA6F010E64
:100BB800D96FDABFEAEF05F0DA5106E1D905D8B006
:100BC800E8EF05F0EAEF05F0F0EF05F0000E7C6FB6
:100BD800060E7B6FFFEF05F0D9C07BF0DAC07CF022
:100BE800FFEF05F0DABFFBEF05F0FDEF05F0EAEFE8
:100BF80005F0F0EF05F0670E8019D8A406EF06F0AF
:100C080008EF06F037EF06F090AF16EF06F0FC0E8F
:100C18008F5DFF0E9059D8A014EF06F016EF06F07E
:100C280035EF06F0FF0E606FFF0E616F7BC062F05C
:100C38007CC063F060516227615163238F51625D0C
:100C48006351800A646F9051800A6459D8A02FEFCD
:100C580006F031EF06F035EF06F0660E7F6F37EFDE
:100C680006F0650E7F6F7BC071F07CC072F0670E76
:100C78008019D8A442EF06F044EF06F054EF06F0CE
:100C8800660E7F19D8A44BEF06F04DEF06F056EF2D
:100C980006F090BF54EF06F052EF06F056EF06F05C
:100CA800714B722B660E7F19D8A45DEF06F05FEFCB
:100CB80006F07FEF06F090BF66EF06F064EF06F0EF
:100CC80072EF06F0000E936F000E946F800E956F12
:100CD8003F0E966F000E906F000E8F6F670E801993
:100CE800D8B479EF06F07BEF06F07FEF06F08F516E
:100CF800712790517223000E8A6F000E896F8BC086
:100D080081F08CC082F08DC083F08EC084F093C0D7
:100D180073F094C074F095C075F096C076F010EF3B
:100D280007F081C028F082C029F083C02AF084C06F
:100D38002BF093C02CF094C02DF095C02EF096C0E7
:100D48002FF0A9EC10F028C041F029C042F02AC0C9
:100D580043F02BC044F076EC12F041C085F042C05D
:100D680086F043C087F044C088F085C001F086C093
:100D780002F087C003F088C004F08DEC15F001C0C4
:100D880077F002C078F081C028F082C029F083C0D3
:100D98002AF084C02BF093C013F094C014F095C0CF
:100DA80015F096C016F085C00FF086C010F087C009
:100DB80011F088C012F094EC0EF00FC02CF010C0A7
:100DC8002DF011C02EF012C02FF0A9EC1BF028C096
:100DD80081F029C082F02AC083F02BC084F093C030
:100DE80028F094C029F095C02AF096C02BF0000E88
:100DF8002C6E000E2D6E200E2E6E410E2F6EA9EC5D
:100E080010F028C093F029C094F02AC095F02BC0A8
:100E180096F00001894B8A2B7151895D8A51800AAD
:100E2800606F7251800A6059D8A01DEF07F01FEF5C
:100E380007F095EF06F093C00FF094C010F095C03E
:100E480011F096C012F0000E136E000E146EA00E74
:100E5800156E400E166E94EC0EF00FC085F010C0A3
:100E680086F011C087F012C088F081C028F082C0D7
:100E780029F083C02AF084C02BF085C02CF086C0EE
:100E88002DF087C02EF088C02FF010EC16F0D8B0E7
:100E980050EF07F052EF07F05DEF07F0000E00018A
:100EA800856F000E866F000E876F000E886F86EFC5
:100EB80007F081C001F082C002F083C003F084C053
:100EC80004F085C005F086C006F087C007F088C02A
:100ED80008F054EC1AF0D8A074EF07F076EF07F09A
:100EE80086EF07F0000177B17CEF07F07EEF07F09F
:100EF80086EF07F0000E856F000E866F000E876F75
:100F0800000E886F8BC001F08CC002F08DC003F01A
:100F18008EC004F085C005F086C006F087C007F0D3
:100F280088C008F019EC0AF001C081F002C082F014
:100F380003C083F004C084F081C028F082C029F087
:100F480083C02AF084C02BF0000E136E000E146EBE
:100F5800200E156E410E166E73C00FF074C010F09F
:100F680075C011F076C012F094EC0EF00FC02CF0A2
:100F780010C02DF011C02EF012C02FF010EC16F09A
:100F8800D8A0C9EF07F0CBEF07F0F4EF07F00001A6
:100F98008F4B902B73C00FF074C010F075C011F018
:100FA80076C012F0000E136E000E146E200E156E31
:100FB800410E166E94EC0EF00FC073F010C074F072
:100FC80011C075F012C076F0660E00017F19D8A422
:100FD800F0EF07F0F2EF07F0F4EF07F0714B722B28
:100FE80073C093F074C094F075C095F076C096F015
:100FF800650E00017F19D8B404EF08F006EF08F079
:101008000CEF08F08FC06FF090C070F010EF08F090
:10101800000E706F000E6F6F000E6E6F000E6D6F1A
:10102800000E6C6F000E6B6F000E8A6F000E896FDA
:101038000BEF09F081C028F082C029F083C02AF0A4
:1010480084C02BF093C02CF094C02DF095C02EF0E6
:1010580096C02FF0A9EC10F028C041F029C042F04A
:101068002AC043F02BC044F076EC12F041C085F062
:1010780042C086F043C087F044C088F085C001F0C4
:1010880086C002F087C003F088C004F08DEC15F02C
:1010980001C077F002C078F00001DBB956EF08F024
:1010A80058EF08F075EF08F077517811D8A45FEF82
:1010B80008F061EF08F075EF08F0670E8019D8A402
:1010C80068EF08F06AEF08F075EF08F070BF71EF8D
:1010D80008F06FEF08F075EF08F06B4B6C2BBFEF63
:1010E80008F06D516E11D8A47CEF08F07EEF08F07F
:1010F800A8EF08F070BF85EF08F083EF08F0A8EFBD
:1011080008F0000E9125D96E010E9221DA6E2E0E8E
:10111800DF6E914B922B7D07D8A07E07000E6E6F75
:10112800010E6D6FA8EF08F0000E9125D96E010E23
:101138009221DA6E300EDF6E914B922B7D07D8A08C
:101148007E076B07D8A06C076B516C11D8A4AFEF62
:1011580008F0B1EF08F098EF08F0000E9125D96E6D
:10116800010E9221DA6E7751300FDF6E914B922B80
:101178007D07D8A07E0781C028F082C029F083C0EF
:101188002AF084C02BF093C013F094C014F095C0DB
:1011980015F096C016F085C00FF086C010F087C015
:1011A80011F088C012F094EC0EF00FC02CF010C0B3
:1011B8002DF011C02EF012C02FF0A9EC1BF028C0A2
:1011C80081F029C082F02AC083F02BC084F093C03C
:1011D80028F094C029F095C02AF096C02BF0000E94
:1011E8002C6E000E2D6E200E2E6E410E2F6EA9EC69
:1011F80010F028C093F029C094F02AC095F02BC0B5
:1012080096F000016F07D8A07007894B8A2B71519F
:10121800895D8A51800A606F7251800A6059D8B01E
:1012280018EF09F01AEF09F028EF09F092BF26EF3E
:1012380009F0925109E14B0E915DD8A026EF09F013
:1012480028EF09F01EEF08F06D516E11D8A42FEFAA
:1012580009F031EF09F042EF09F0DBA936EF09F0A8
:1012680038EF09F042EF09F0000E9125D96E010E12
:101278009221DA6E2E0EDF6E914B922B000E912585
:10128800D96E010E9221DA6E000EDF6E650E7F199F
:10129800D8A451EF09F053EF09F0BAEF04F0000EAB
:1012A8008A6F4F0E896F000E8925D96E010E8A212B
:1012B800DA6E000EDF6E000E7A6F000E796F90BF47
:1012C8006AEF09F068EF09F072EF09F0000E7A6F23
:1012D800010E796F8F6D901FD8B0902B000E7C6F28
:1012E800020E7B6FA3EF09F08907D8A08A07000ECA
:1012F8008925D96E010E8A21DA6E8FC001F090C05F
:1013080002F0000E046E0A0E036EFCEC19F0015098
:10131800300FDF6E8FC001F090C002F0000E046E37
:101328000A0E036E3DEC19F001C08FF002C090F078
:1013380000017B07D8A07C077D07D8A07E078F51C6
:101348009011D8A4AAEF09F0ACEF09F078EF09F0F2
:101358007CBFB9EF09F07C5106E17B05D8B0B7EF47
:1013680009F0B9EF09F078EF09F08907D8A08A07E2
:1013780079517A11D8A4C3EF09F0C5EF09F0CBEF82
:1013880009F0000E686F2B0E676FCFEF09F0000EA3
:10139800686F2D0E676F000E8925D96E010E8A21A0
:1013A800DA6E67C0DFFF7D07D8A07E078907D8A05F
:1013B8008A07BF0E606FFF0E616F5B50626F636BD1
:1013C8006051622761516323635109E11A0E625D1E
:1013D800D8A0F1EF09F0F3EF09F0F9EF09F0000EEA
:1013E8006A6F650E696FFDEF09F0000E6A6F450EB2
:1013F800696F000E8925D96E010E8A21DA6E69C0DF
:10140800DFFF7D07D8A07E07000E9125016E010E33
:101418009221026E000E8925036E010E8A21046E48
:10142800DAEC1AF0BAEF04F012000450800B0D6EDB
:10143800045004240F6E03AE24EF0AF026EF0AF0DE
:1014480027EF0AF00F800F50D8B42DEF0AF02FEFD6
:101458000AF044EF0AF00F28D8A435EF0AF037EF66
:101468000AF03FEF0AF0000E016E000E026E000E49
:10147800036E000E046E038E000E046E4CEF0AF02D
:10148800000E016E000E026E000E036E000E046E5A
:101498000850800B0E6E0D500E18D8B456EF0AF097
:1014A80058EF0AF059EF0AF00D8C085008240E6E18
:1014B80007AE61EF0AF063EF0AF064EF0AF00E80FE
:1014C8000E50D8B46AEF0AF06CEF0AF081EF0AF018
:1014D8000E28D8A472EF0AF074EF0AF07CEF0AF035
:1014E800000E056E000E066E000E076E000E086EEA
:1014F800078E000E086E89EF0AF0000E056E000ECA
:10150800066E000E076E000E086E0F500E5CD8B007
:1015180090EF0AF092EF0AF0B9EF0AF00DAC97EFEE
:101528000AF099EF0AF09BEF0AF0800E0D1A0FC02F
:1015380010F00EC00FF010C00EF001C010F005C082
:1015480001F010C005F002C010F006C002F010C093
:1015580006F003C010F007C003F010C007F004C085
:1015680010F008C004F010C008F0000E106E0F5004
:101578000EC009F00A6A095E000E0A5A0ABECEEFCA
:101588000AF00A5009E11A0E095CD8A0CEEF0AF059
:10159800D0EF0AF007EF0BF001500210031004100F
:1015A800D8A4D9EF0AF0DCEF0AF0010EDDEF0AF05B
:1015B800000E106E000E016E000E026E000E036E1D
:1015C800000E046E0EC00FF010EF0BF010A0EFEF3E
:1015D8000AF0F1EF0AF0F7EF0AF0D890103001099D
:1015E800106EF9EF0AF0D890103201A0FEEF0AF061
:1015F80000EF0BF001EF0BF0108E043404320332CD
:10160800023201320F2A0E500F5CD8A00EEF0BF0F9
:1016180010EF0BF0EAEF0AF00DBC15EF0BF017EF27
:101628000BF057EF0BF00F50D8A41DEF0BF01FEF86
:101638000BF029EF0BF0000E016E000E026E000E8B
:10164800036E000E046E78EF0CF00550012606506C
:101658000222075003220850042204A036EF0BF0A0
:1016680038EF0BF0E4EF0BF010A03DEF0BF03FEF7D
:101678000BF045EF0BF0D89010300109106E47EFD2
:101688000BF0D890103201A04CEF0BF04EEF0BF09E
:101698004FEF0BF0108E0434043203320232013261
:1016A8000F2AE4EF0BF00550015C06500258075072
:1016B80003580450800A096E0850800A0958D8B0A7
:1016C80068EF0BF06AEF0BF095EF0BF00150055C3B
:1016D800096E025006580A6E035007580B6E0450E4
:1016E80008580C6EFF0E0924016EFF0E0A20026EC8
:1016F800FF0E0B20036EFF0E0C20046E800E0D1AD9
:10170800106C1050D8A48BEF0BF08DEF0BF09DEF01
:101718000BF0010E0126000E0222032204229DEF87
:101728000BF00550015E0650025A0750035A085044
:10173800045A0150021003100410D8A4A6EF0BF0AD
:10174800A8EF0BF0DDEF0BF01050D8A4AEEF0BF0C4
:10175800B0EF0BF0DDEF0BF0000E016E000E026E25
:10176800000E036E000E046E78EF0CF0D890013670
:1017780002360336043610AEC4EF0BF0C6EF0BF09A
:10178800C7EF0BF0018010A0CCEF0BF0CEEF0BF001
:10179800D2EF0BF0D8801036D4EF0BF0D89010367B
:1017A8000F50D8B4DAEF0BF0DCEF0BF0DDEF0BF0F5
:1017B8000F0603AEE2EF0BF0E4EF0BF0BAEF0BF01D
:1017C800000E0E6E10AEEBEF0BF0EDEF0BF005EF29
:1017D8000CF010C009F07F0E0916D8B4F6EF0BF024
:1017E800F8EF0BF0FCEF0BF0010E0E6E05EF0CF0AE
:1017F80001A001EF0CF003EF0CF005EF0CF0F8EF8F
:101808000BF00E50D8B40BEF0CF00DEF0CF038EFD6
:101818000CF0010E0126000E02220322042204A06D
:1018280018EF0CF01AEF0CF038EF0CF001C009F0CB
:1018380002C00AF003C00BF004C00CF00C340C32E8
:101848000B320A32093209C001F00AC002F00BC09B
:1018580003F00CC004F00F28D8B435EF0CF037EFC4
:101868000CF038EF0CF00F2A0F28D8B43EEF0CF02C
:1018780040EF0CF048EF0CF00F50D8A446EF0CF0F6
:1018880048EF0CF05AEF0CF0000E016E000E026EDD
:10189800000E036E000E046E0F50D8A456EF0CF025
:1018A80058EF0CF05AEF0CF0000E0D6E0FA05FEF22
:1018B8000CF061EF0CF064EF0CF0038E65EF0CF0A8
:1018C800039ED8900F30046E0DAE6DEF0CF06FEFE5
:1018D8000CF070EF0CF0048E01C001F002C002F0B1
:1018E80003C003F004C004F0120099C0D9FF9AC0E5
:1018F800DAFFDECFF6FFDDCFF7FF0800F550250A47
:10190800D8A489EF0CF08BEF0CF078EF0EF099C0AB
:10191800D9FF9AC0DAFFDE2A000EDD22000E000190
:10192800D86F000ED76FD7C0DBF0D8C0DCF0D9690C
:10193800DA6999C0D9FF9AC0DAFFDECFF6FFDDCFAA
:10194800F7FF0800F5502E0AD8A4ADEF0CF0AFEF62
:101958000CF01FEF0DF0000EDA6F000ED96F99C072
:10196800D9FF9AC0DAFFDE2A000EDD2299C0D9FF1E
:101978009AC0DAFFDECFF6FFDDCFF7FF0800F5509B
:101988002A0AD8A4CAEF0CF0CCEF0CF0E9EF0CF05F
:1019980099C0D9FF9AC0DAFFDE2A000EDD229BC06B
:1019A800D9FF9CC0DAFFDFCF5CF0020EDE26DFCF66
:1019B8005DF0000EDD225CC0D9FF5DC0DAFFDECF2E
:1019C800D9F0DDCFDAF01FEF0DF099C0D9FF9AC03A
:1019D800DAFFDECF08F0DDCF09F059EC14F008C0CB
:1019E800D9F009C0DAF000EF0DF099C0D9FF9AC01C
:1019F800DAFFDE2A000EDD22D00E5C6EFF0E5D6E71
:101A080099C0D9FF9AC0DAFFDECFF6FFDDCFF7FF26
:101A18000800F5505E6E5F6A5C505E265D505F227E
:101A28005F5009E10A0E5E5CD8A01DEF0DF01FEFB4
:101A38000DF0F9EF0CF099C0D9FF9AC0DAFFDECFAC
:101A4800F6FFDDCFF7FF0800F550076E086A86EC51
:101A58001BF007500001A16FA151D8B436EF0DF06B
:101A680038EF0DF072EF0DF099C0D9FF9AC0DAFF88
:101A7800DECF5CF0DDCF5DF0010E5C26000E5D224E
:101A88005CC0F6FF5DC0F7FF0800F550076E086AF6
:101A980086EC1BF007500001A26FA251D8B457EF93
:101AA8000DF059EF0DF072EF0DF099C0D9FF9AC003
:101AB800DAFFDECF5CF0DDCF5DF0020E5C26000EB3
:101AC8005D225CC0F6FF5DC0F7FF0800F550076EA9
:101AD800086A86EC1BF007500001A36F660EA11977
:101AE800D8A479EF0DF07BEF0DF0BBEF0DF099C0A6
:101AF800D9FF9AC0DAFFDECFF6FFDDCFF7FF080087
:101B0800F5CFA4F099C0D9FF9AC0DAFFDE2A000EFB
:101B1800DD229BC0D9FF9CC0DAFFDFCF5CF0040E4A
:101B2800DE26DFCF5DF0000EDD225CC0D9FF5DC090
:101B3800DAFFDECF9DF0DECF9EF0DECF9FF0DECF66
:101B4800A0F097C055F098C056F09DC057F09EC0C1
:101B580058F09FC059F0A0C05AF0A4C05BF014EC34
:101B680004F055C097F056C098F093EF0EF0A10E10
:101B7800016E000E026E230E036E080E046E000E38
:101B8800066E020E056E0AEC18F001500210D8A479
:101B9800D0EF0DF0D2EF0DF040EF0EF099C0D9FF65
:101BA8009AC0DAFFDECF5CF0DDCF5DF0010E5C2677
:101BB800000E5D225CC0F6FF5DC0F7FF0800F5CFA0
:101BC800A4F0BF0E5C6EFF0E5D6E99C0D9FF9AC07F
:101BD800DAFFDECFF6FFDDCFF7FF0800F5505E6EC7
:101BE8005F6A5C505E265D505F225F5007E11A0E07
:101BF8005E5CD8B002EF0EF004EF0EF01EEF0EF0B0
:101C08009BC0D9FF9CC0DAFFDFCF5CF0040EDE2654
:101C1800DFCF5DF0000EDD225CC0D9FF5DC0DAFFCA
:101C2800DECF9DF0DECF9EF0DECF9FF0DECFA0F0BE
:101C380036EF0EF09BC0D9FF9CC0DAFFDFCF5CF017
:101C4800040EDE26DFCF5DF0000EDD225CC0D9FF7A
:101C58005DC0DAFFDECF9DF0DECF9EF0DECF9FF0D5
:101C6800DECFA0F0020E99C0D9FF9AC0DAFFDE26B7
:101C7800000EDD22A5EF0DF099C0D9FF9AC0DAFF5A
:101C8800DECFF6FFDDCFF7FF0800F550250AD8A410
:101C980050EF0EF052EF0EF06AEF0EF099C0D9FF38
:101CA8009AC0DAFFDE2A000EDD22000E026E250E33
:101CB800016E97C003F098C004F075EC18F0000EA0
:101CC8000001986F010E976F93EF0EF099C0D9FF3E
:101CD8009AC0DAFFDE2A000EDD22000E0001986F9E
:101CE800000E976F93EF0EF099C0D9FF9AC0DAFFF4
:101CF800DECFF6FFDDCFF7FF0800F550016E026A70
:101D080097C003F098C004F075EC18F099C0D9FF9B
:101D18009AC0DAFFDE2A000EDD2263EF0EF0120011
:101D28001250800B1B6E12501224216E11AE9FEFC1
:101D38000EF0A1EF0EF0A2EF0EF021802150D8B4E2
:101D4800A8EF0EF0AAEF0EF0BDEF0EF02128D8A4F0
:101D5800B0EF0EF0B2EF0EF0BAEF0EF0000E0F6E0D
:101D6800000E106E000E116E000E126E118EC5EF71
:101D78000EF0000E0F6E000E106E000E116E000EAB
:101D8800126E1650800B1B1A16501624206E15AEB4
:101D9800D0EF0EF0D2EF0EF0D3EF0EF020802050EF
:101DA800D8B4D9EF0EF0DBEF0EF0EEEF0EF02028EE
:101DB800D8A4E1EF0EF0E3EF0EF0EBEF0EF0000E1B
:101DC800136E000E146E000E156E000E166E158E34
:101DD800F6EF0EF0000E136E000E146E000E156E68
:101DE800000E166E2050D8B4FCEF0EF0FEEF0EF089
:101DF80006EF0FF02150D8A404EF0FF006EF0FF014
:101E080010EF0FF0000E0F6E000E106E000E116E28
:101E1800000E126EA8EF10F015500F02F3CF26F047
:101E2800F4CF27F026501C6E1D6A1E6A1F6A2750C1
:101E3800226E236A246A256A14501002F3CF26F012
:101E4800F4CF27F026501C26000E1D221E221F222A
:101E580027502226000E2322242225221350110265
:101E6800F3CF26F0F4CF27F026501C26000E1D22B3
:101E78001E221F2227502226000E2322242225223A
:101E88001EC01FF01DC01EF01CC01DF01C6A1350A0
:101E98001002F3CF26F0F4CF27F026501C26275047
:101EA8001D22000E1E22000E1F2214500F02F3CF17
:101EB80026F0F4CF27F026501C2627501D22000EAE
:101EC8001E22000E1F221EC01FF01DC01EF01CC0C7
:101ED8001DF01C6A13500F02F3CF26F0F4CF27F041
:101EE80026501C2627501D22000E1E22000E1F22DF
:101EF80015501002F3CF26F0F4CF27F026502226F3
:101F080027502322000E2422000E252214501102ED
:101F1800F3CF26F0F4CF27F026502226275023228D
:101F2800000E2422000E252215501102F3CF26F0B0
:101F3800F4CF27F02650176E2750186E196A1A6AC0
:101F480019C01AF018C019F017C018F0176A1750FE
:101F5800222618502322195024221A5025221CC048
:101F680017F01DC018F01EC019F01FC01AF0190E86
:101F7800C3EF0FF0D8901A32193218321732E82E00
:101F8800BEEF0FF017502226185023221950242292
:101F98001A5025221EC01FF01DC01EF01CC01DF0C7
:101FA8001C6A205021C017F0186A1726000E182244
:101FB800820E1724266EFF0E1820276EF9EF0FF0F9
:101FC800D89022362336243625361FAEEEEF0FF092
:101FD800F0EF0FF0F1EF0FF02280D8901C361D368D
:101FE8001E361F362606D8A0270624AEFEEF0FF0B1
:101FF80000EF10F0E4EF0FF0000E206E1FAE07EFB9
:1020080010F009EF10F02DEF10F0FF0E1C14176EF2
:10201800FF0E1D14186EFF0E1E14196E7F0E1F146E
:102028001A6E1750181019101A10D8B41EEF10F0A5
:1020380020EF10F024EF10F0010E206E2DEF10F0BD
:1020480022A029EF10F02BEF10F02DEF10F020EF69
:1020580010F02050D8B433EF10F035EF10F059EFEE
:1020680010F0010E2226000E23222422252225A06C
:1020780040EF10F042EF10F059EF10F022C017F0C7
:1020880023C018F024C019F025C01AF01A341A32E7
:1020980019321832173217C022F018C023F019C0AD
:1020A80024F01AC025F0264A272A27BE64EF10F02C
:1020B800275008E12628D8A064EF10F066EF10F04A
:1020C80070EF10F0000E226E000E236E800E246E4C
:1020D8007F0E256E9EEF10F027BE7DEF10F0275083
:1020E80006E12604D8B07BEF10F07DEF10F089EF01
:1020F80010F0000E226E000E236E000E246E000EED
:10210800256E000E1B6E9EEF10F026C021F0FF0E0C
:102118002216FF0E23167F0E2416000E251621A068
:1021280098EF10F09AEF10F09BEF10F0248ED890F3
:102138002130256E1B50251222C00FF023C010F04D
:1021480024C011F025C012F012002B50800B386EFD
:102158002B502B243F6E2AAEB4EF10F0B6EF10F0E0
:10216800B7EF10F03F803F50D8B4BDEF10F0BFEF8D
:1021780010F0D4EF10F03F28D8A4C5EF10F0C7EF47
:1021880010F0CFEF10F0000E286E000E296E000E32
:102198002A6E000E2B6E2A8E000E2B6EDCEF10F0CE
:1021A800000E286E000E296E000E2A6E000E2B6E91
:1021B8002F50800B381A2F502F24406E2EAEE7EF89
:1021C80010F0E9EF10F0EAEF10F040804050D8B47A
:1021D800F0EF10F0F2EF10F007EF11F04028D8A45C
:1021E800F8EF10F0FAEF10F002EF11F0000E2C6E7D
:1021F800000E2D6E000E2E6E000E2F6E2E8E000E0F
:102208002F6E0FEF11F0000E2C6E000E2D6E000ECB
:102218002E6E000E2F6E2C502D102E102F10D8A4BD
:1022280018EF11F01AEF11F032EF11F0000E286ECE
:10223800000E296E000E2A6E000E2B6E800E2A12DA
:102248007F0E2B1238502B1228C028F029C029F0F5
:102258002AC02AF02BC02BF075EF12F03F50D8A4FB
:1022680038EF11F03AEF11F044EF11F0000E286E3C
:10227800000E296E000E2A6E000E2B6E75EF12F0FE
:1022880040503FC030F0316A305E000E315A7F0E48
:102298003024396E000E31203A6E28C034F029C03F
:1022A80035F02AC036F02BC037F0000E286E000E2D
:1022B800296E000E2A6E000E2B6E000E3B6E000E6D
:1022C8003C6E000E3D6E000E3E6E000E406EA5EF99
:1022D80011F04050D8B473EF11F075EF11F08CEF96
:1022E80011F0D8903436353636363736D890283609
:1022F80029362A362B363EAE84EF11F086EF11F0E0
:1023080087EF11F02880D8903B363C363D363E3674
:102318002C50345C2D5035582E5036582F50375885
:10232800D8A099EF11F09BEF11F0A4EF11F03E8CBB
:102338002C50345E2D50355A2E50365A2F50375A5D
:10234800402A190E4064ABEF11F0ADEF11F06DEFBC
:1023580011F03450351036103710D8B4B6EF11F0EC
:10236800B8EF11F0D0EF11F03B80D0EF11F0D8901A
:10237800283629362A362B363EAEC5EF11F0C7EF80
:1023880011F0C8EF11F02880D8903B363C363D3626
:102398003E363906D8A03A062AAED5EF11F0D7EF67
:1023A80011F0BBEF11F0000E406E3EAEDEEF11F003
:1023B800E0EF11F004EF12F0FF0E3B14306EFF0E49
:1023C8003C14316EFF0E3D14326E7F0E3E14336E98
:1023D8003050311032103310D8B4F5EF11F0F7EF58
:1023E80011F0FBEF11F0010E406E04EF12F028A07F
:1023F80000EF12F002EF12F004EF12F0F7EF11F015
:102408004050D8B40AEF12F00CEF12F030EF12F08F
:10241800010E2826000E29222A222B222BA017EF94
:1024280012F019EF12F030EF12F028C030F029C086
:1024380031F02AC032F02BC033F033343332323229
:102448003132303230C028F031C029F032C02AF0A1
:1024580033C02BF0394A3A2A3ABE3BEF12F03A50D1
:1024680008E13928D8A03BEF12F03DEF12F048EF11
:1024780012F0000E3A6E3968000E286E000E296EB2
:10248800000E2A6E000E2B6E3ABE55EF12F03A502F
:1024980006E13904D8B053EF12F055EF12F063EFAC
:1024A80012F0000E3A6E000E396E000E286E000E05
:1024B800296E000E2A6E000E2B6E000E386E39C083
:1024C8003FF03FA06AEF12F06CEF12F06FEF12F0DE
:1024D8002A8E70EF12F02A9ED8903F302B6E26EF8E
:1024E80011F01200C9C051F0CAC052F0CBC053F06D
:1024F800CCC054F041C051F042C052F043C053F038
:1025080044C054F0810E456EFF0E466E51C047F030
:1025180052C048F053C049F054C04AF0180E9AEF20
:1025280012F0D8904A32493248324732E82E95EFB5
:1025380012F0475045244F6E000E4620506E50BE94
:10254800AFEF12F0505009E1170E4F5CD8A0AFEF73
:1025580012F0B1EF12F0BBEF12F041C041F042C0EF
:1025680042F043C043F044C044F07EEF13F050BE45
:10257800C0EF12F0C2EF12F032EF13F04FC045F087
:10258800FF0E466EFF0E476E7F0E486E000E496EB8
:102598004566D1EF12F0D9EF12F04934493248328A
:1025A80047324632452ECCEF12F046C04BF047C0BA
:1025B8004CF048C04DF049C04EF04B505114456E98
:1025C8004C505214466E4D505314476E4E5054148E
:1025D800486E4550461047104810D8A4F6EF12F040
:1025E800F8EF12F0FAEF12F0B1EF12F051C045F027
:1025F80052C046F053C047F054C048F0200E0AEFCE
:1026080013F0D8904832473246324532E82E05EF6B
:1026180013F04550461047104810D8B416EF13F081
:1026280018EF13F020EF13F04B5051264C50522264
:102638004D5053224E5054224B1C456E4C1C466E36
:102648004D1C476E4E1C486E45505116465052164A
:10265800475053164850541676EF13F051C045F0C2
:1026680052C046F053C047F054C048F0200E42EF25
:1026780013F0D8904832473246324532E82E3DEFC3
:1026880013F04550461047104810D8A44EEF13F0E9
:1026980050EF13F05AEF13F0000E516E000E526E09
:1026A800000E536E000E546E76EF13F0D89051342E
:1026B800456E5234466E5334476E5434486E455016
:1026C800461047104810D8B46CEF13F06EEF13F0B3
:1026D80076EF13F0000E516E000E526E800E536EA0
:1026E800BF0E546E51C041F052C042F053C043F087
:1026F80054C044F01200096E0950D8B486EF13F0A4
:1027080088EF13F0AAEF13F004BE8FEF13F08DEFEC
:1027180013F0AAEF13F001C005F002C006F003C0E1
:1027280007F004C008F0051E061E071E081E052A2D
:10273800000E06220722082205C00BF006C00CF086
:1027480007C00DF008C00EF0B2EF13F001C00BF097
:1027580002C00CF003C00DF004C00EF001500210CE
:1027680003100410D8A4BBEF13F0BDEF13F0C7EFAC
:1027780013F0000E016E000E026E000E036E000EC6
:10278800046E58EF14F0960E0A6ED1EF13F00A2A71
:10279800D8900E320D320C320B32000E0B14056E2F
:1027A800000E0C14066E000E0D14076EFE0E0E14AD
:1027B800086E0550061007100810D8A4E6EF13F0AD
:1027C800E8EF13F0CBEF13F0F6EF13F00A2A010E3F
:1027D8000B26000E0C220D220E22D8900E320D323E
:1027E8000C320B32000E0B14056E000E0C14066E24
:1027F800000E0D14076EFF0E0E14086E055006101D
:1028080007100810D8A40BEF14F00DEF14F0EAEF3E
:1028180013F015EF14F00A06D8900B360C360D3667
:102828000E360DBE1AEF14F01CEF14F024EF14F05E
:10283800020E0A6022EF14F024EF14F00FEF14F0E8
:102848000AB029EF14F02BEF14F02CEF14F00D9EC2
:10285800D8900A320AC005F0066A076A086A05C0F5
:1028680008F0076A066A056A05500B1206500C1232
:1028780007500D1208500E120950D8B446EF14F044
:1028880048EF14F050EF14F004BE4FEF14F04DEF82
:1028980014F050EF14F00E8E0BC001F00CC002F0D3
:1028A8000DC003F00EC004F01200000E116E000EF1
:1028B800106E000E0F6E000E0E6E65EF14F0084AD3
:1028C800092A08C0F6FF09C0F7FF0800F550200ADA
:1028D800D8B471EF14F073EF14F063EF14F0F70E3F
:1028E8000A6EFF0E0B6E08C0F6FF09C0F7FF08005E
:1028F800F5500C6E0D6A0A500C260B500D220D5027
:1029080009E1050E0C5CD8A08CEF14F08EEF14F0E2
:1029180063EF14F098EF14F0000E0F6E010E0E6EB8
:10292800084A092ACDEF14F008C0F6FF09C0F7FFDE
:102938000800F5500A6E0B6A0B50000AD8B4A7EFCE
:1029480014F0CDEF14F00A502B0AD8B494EF14F019
:10295800060AD8B490EF14F0CDEF14F010C001F0CF
:1029680011C002F0000E046E0A0E036E73EC1CF028
:1029780008C0F6FF09C0F7FF0800F550015E000E19
:10298800025A300E0124106E000E0220116E94EFD0
:1029980014F0D00E0A6EFF0E0B6E08C0F6FF09C0C9
:1029A800F7FF0800F5500C6E0D6A0A500C260B5004
:1029B8000D220D5009E10A0E0C5CD8A0E6EF14F0C8
:1029C800E8EF14F0B2EF14F00E500F10D8A4EFEFA8
:1029D80014F0F1EF14F0FFEF14F010C00AF011C07A
:1029E8000BF00A1E0B1E0A4A0B2A0AC008F00BC07D
:1029F80009F003EF15F010C008F011C009F012003B
:102A0800E8EC1CF0000E016E4E0E5DEC1CF0000EA2
:102A1800C4EC1CF0DFEC1CF0620E0B6E660EE82EA8
:102A2800FED70B2EFCD7030E066E000E9FEC19F096
:102A3800210E0B6E760EE82EFED70B2EFCD700D09B
:102A4800030E066E000E9FEC19F0210E0B6E760E2B
:102A5800E82EFED70B2EFCD700D0030E066E000E14
:102A68009FEC19F0210E0B6E760EE82EFED70B2E7A
:102A7800FCD700D0020E066E000E9FEC19F0210E56
:102A88000B6E760EE82EFED70B2EFCD700D0280E44
:102A9800096E000EB6EC1CF0210E0B6E760EE82EB9
:102AA800FED70B2EFCD700D0080E096E000EB6EC30
:102AB8001CF0210E0B6E760EE82EFED70B2EFCD7DF
:102AC80000D0010E096E000EB6EC1CF0210E0B6E44
:102AD800760EE82EFED70B2EFCD700D0060E096E18
:102AE800000EB6EC1CF0210E0B6E760EE82EFED70B
:102AF8000B2EFCD700D00F0E096E000EB6EC1CF0A2
:102B0800210E0B6E760EE82EFED70B2EFCD700D0CA
:102B18001200033404340A6E0A50D8A496EF15F054
:102B280098EF15F0A2EF15F0000E016E000E026E80
:102B3800000E036E000E046E0FEF16F001C005F0D4
:102B480002C006F003C007F004C008F0200EB2EF80
:102B580015F0D8900832073206320532E82EADEF6C
:102B680015F00550096E038EFF0E0116FF0E0216B2
:102B7800FF0E0316000E0416960E0A5E0ABEC9EF73
:102B880015F0C7EF15F0DFEF15F00A50800A970F20
:102B9800D8B0D1EF15F0D3EF15F0D5EF15F098EFC9
:102BA80015F0D89004320332023201320A3ED5EFD2
:102BB80015F0F7EF15F01F0E0A64E5EF15F0E7EFD3
:102BC80015F0EFEF15F098EF15F0D89001360236B2
:102BD800033604360A060A50D8A4F5EF15F0F7EFC5
:102BE80015F0E9EF15F00950D8B4FDEF15F0FFEF37
:102BF80015F007EF16F0041E031E021E016C000EEE
:102C080002220322042201C001F002C002F003C024
:102C180003F004C004F01200000E2814306E000EF9
:102C28002914316E800E2A14326E7F0E2B14336EE7
:102C38003050311032103310D8A425EF16F027EF9A
:102C480016F02FEF16F0000E286E000E296E000EFB
:102C58002A6E000E2B6E000E2C14306E000E2D14F2
:102C6800316E800E2E14326E7F0E2F14336E30505C
:102C7800311032103310D8A444EF16F046EF16F096
:102C88004EEF16F0000E2C6E000E2D6E000E2E6EFE
:102C9800000E2F6E2BAE53EF16F055EF16F05EEFC9
:102CA80016F0286C291ED8B0292A2A1ED8B02A2A3C
:102CB800800E2B562FAE63EF16F065EF16F06EEF11
:102CC80016F02C6C2D1ED8B02D2A2E1ED8B02E2A08
:102CD800800E2F56000E281A000E291A000E2A1AE6
:102CE800800E2B1A000E2C1A000E2D1A000E2E1A0A
:102CF800800E2F1A2C50285C2D5029582E502A58F7
:102D08002F502B58D8B08BEF16F08DEF16F090EFB0
:102D180016F0D89091EF16F0D8801200106EC7EF19
:102D280016F00B50800F0B6E0BC009F0000EB6ECBE
:102D38001CF0FAEF16F00B50C00F0B6E0BC009F029
:102D4800000EB6EC1CF0FAEF16F00B50940F0B6E59
:102D58000BC009F0000EB6EC1CF0FAEF16F00B50A1
:102D6800D40F0B6E0BC009F0000EB6EC1CF0FAEF96
:102D780016F00B50800F0B6E0BC009F0000EB6EC6E
:102D88001CF0FAEF16F010500E6E0F6A0F50000A82
:102D9800D8B4D1EF16F0BDEF16F00E50000AD8B433
:102DA80095EF16F0010AD8B49FEF16F0030AD8B4CD
:102DB800A9EF16F0010AD8B4B3EF16F0BDEF16F07C
:102DC8000CC0F6FF0DC0F7FFF86A070EF76403D0D2
:102DD8000800F55005D0F6CFE1FFF7CFE2FFE75046
:102DE800096E010EB6EC1CF00C4A0D2A0CC0F6FF59
:102DF8000DC0F7FFF86A070EF76403D00800F55016
:102E080005D0F6CFE1FFF7CFE2FFE7500009D8A4DD
:102E180010EF17F012EF17F0E4EF16F01200CDC024
:102E28000BF0CEC00CF0CFC00DF0D0C00EF001C03A
:102E38000BF002C00CF003C00DF004C00EF00BC084
:102E480005F00CC006F00DC007F00EC008F0180E13
:102E580033EF17F0D8900832073206320532E82EE1
:102E68002EEF17F00550096E0A6A09500A10D8A407
:102E780040EF17F042EF17F062EF17F0D8900B34DD
:102E8800056E0C34066E0D34076E0E34086E055050
:102E9800061007100810D8A454EF17F056EF17F0D3
:102EA8005CEF17F0000E026E020E016E91EF17F044
:102EB800000E026E030E016E91EF17F009280A103A
:102EC800D8A469EF17F06BEF17F08DEF17F00BC070
:102ED80005F00CC006F00DC007F00EC008F0090E92
:102EE800D8900536063607360836E82E74EF17F000
:102EF8000550061007100810D8B485EF17F088EFB2
:102F080017F0010E89EF17F0000E016E026A91EFBB
:102F180017F0000E026E040E016E1200D2EC1CF0C7
:102F280004EC15F097EC1CF0000E0B6E010E0C6E05
:102F3800080E0D6E000E92EC16F0000E08EC1BF059
:102F480001C0DDF002C0DEF0000E136E000E146E3C
:102F5800A00E156E400E166EDDC001F0DEC002F048
:102F6800036A046A000E7FEC13F001C00FF002C080
:102F780010F003C011F004C012F094EC0EF00FC072
:102F880028F010C029F011C02AF012C02BF0000E52
:102F98002C6EC00E2D6E7F0E2E6E440E2F6EA9EC79
:102FA80010F028C0D1F029C0D2F02AC0D3F02BC02D
:102FB800D4F0DF0E0001AD6F000EAE6F0D0EAF6FD7
:102FC800080EB06FD1C0B1F0D2C0B2F0D3C0B3F028
:102FD800D4C0B4F034EC1BF0000E0B6EDF0E0C6E98
:102FE800000E0D6E010E92EC16F0030E0001C86F74
:102FF8008A0EC76F550EE82EFED7C72FFCD7C82FED
:10300800FAD700D0A1EF17F000EF00F001C008F0E8
:1030180002C009F003C00AF004C00BF00506D8A0EE
:103028000606052806E10628D8A41DEF18F01FEFAC
:1030380018F02CEF18F0000E026E000E016E74EFFF
:1030480018F0084A092A0A4A0B2A0506D8A00606D3
:1030580008C0D9FF09C0DAFFDF50D8B436EF18F03E
:1030680038EF18F063EF18F00AC0F6FF0BC0F7FF4F
:103078000800F5500009D8B444EF18F046EF18F0EE
:1030880063EF18F005500610D8B44DEF18F04FEF65
:1030980018F063EF18F008C0D9FF09C0DAFFDF5055
:1030A800076E0AC0F6FF0BC0F7FF0800F5500718B7
:1030B800D8B461EF18F063EF18F025EF18F008C0E6
:1030C800D9FF09C0DAFFDF50076E0AC0F6FF0BC050
:1030D800F7FF0800F550075C016E026AD8A00206E7
:1030E800120003500410D8B47CEF18F07EEF18F0EB
:1030F80087EF18F003500410D8A485EF18F087EF75
:1031080018F08CEF18F00150F1EC1CF0D9EF18F022
:1031180020EE09F00350D9260450DA22DE50DE10E2
:10312800D8B499EF18F09BEF18F0B6EF18F020EE2E
:1031380009F00350D9260450DA2210EE03F00350A8
:10314800E1260450E222DE50E65CE650800A096E71
:10315800DE50800A0958D8B0B4EF18F0B6EF18F06E
:10316800D9EF18F020EE03F00350D9260450DA22E4
:10317800DECF05F0DDCF06F003C0D9FF04C0DAFFCB
:10318800DECF07F0DDCF08F005500724D96E0650D2
:103198000820DA6E01C0DFFF20EE03F00350D926C5
:1031A8000450DA22DE2A000EDD2212000001DBA123
:1031B800E0EF18F0E2EF18F0ECEF18F013C00AF0A7
:1031C80014C00BF011C00CF012C00DF0CCEC1BF0C9
:1031D80016BEF1EF18F0F3EF18F0F9EF18F015C07C
:1031E8001AF016C01BF0FDEF18F0000E1B6E000E53
:1031F8001A6E000E196E000E186E0FEF19F0000E01
:10320800026E200E016E11C003F012C004F075ECBE
:1032180018F0184A192A1A50185C1950800A176EA3
:103228001B50800A1758D8A01CEF19F01EEF19F090
:1032380003EF19F00001DBB124EF19F026EF19F0C4
:1032480030EF19F013C00AF014C00BF011C00CF0E5
:1032580012C00DF0CCEC1BF013C001F014C002F04A
:1032680042EC1CF01A500124116E1B500220126E01
:103278001200000E066E04BE46EF19F044EF19F076
:103288004CEF19F0036C041ED8B0042A010E066E28
:1032980002BE53EF19F051EF19F059EF19F0016C14
:1032A800021ED8B0022A010E061A000E086E000E81
:1032B800076E03500410D8B464EF19F066EF19F0E4
:1032C8008EEF19F0010E056E6EEF19F0D8900336E7
:1032D8000436052A04AE73EF19F075EF19F06AEF9A
:1032E80019F0D890073608360350015C045002588C
:1032F800D8A081EF19F083EF19F088EF19F0035087
:10330800015E0450025A0780D89004320332052E19
:1033180075EF19F00650D8B494EF19F096EF19F03C
:103328009AEF19F0076C081ED8B0082A07C001F0F8
:1033380008C002F01200076E06A0A5EF19F0A7EF6B
:1033480019F0ACEF19F008501009086EAFEF19F03A
:103358000850EF0B086E06A2B4EF19F0B6EF19F09B
:10336800BBEF19F008502009086EBEEF19F008509D
:10337800DF0B086E06A4C3EF19F0C5EF19F0CAEF0A
:1033880019F008504009086ECDEF19F00850BF0B2E
:10339800086E06A6D2EF19F0D4EF19F0D9EF19F09C
:1033A80008508009086EDCEF19F008507F0B086E92
:1033B800640EE82EFED70704D8A4E5EF19F0E7EF6E
:1033C80019F0ECEF19F008500109086EEFEF19F049
:1033D8000850FE0B086E08500409A7EC1CF0030EF9
:1033E800E82EFED700F00850FB0BA7EC1CF01200EB
:1033F800000E066E02BE05EF1AF003EF1AF00BEF8F
:103408001AF0016C021ED8B0022A010E066E04BE24
:1034180012EF1AF010EF1AF016EF1AF0036C041EF0
:10342800D8B0042A03500410D8B41DEF1AF01FEFC7
:103438001AF043EF1AF0010E056E27EF1AF0D89034
:1034480003360436052A04AE2CEF1AF02EEF1AF0D4
:1034580023EF1AF00350015C04500258D8A037EF4C
:103468001AF039EF1AF03DEF1AF00350015E0450DC
:10347800025AD89004320332052E2EEF1AF0065065
:10348800D8B449EF1AF04BEF1AF04FEF1AF0016C6D
:10349800021ED8B0022A01C001F002C002F01200D8
:1034A800000E0114096E000E02140A6E800E031439
:1034B8000B6E7F0E04140C6E09500A100B100C10C2
:1034C800D8A469EF1AF06BEF1AF073EF1AF0000E38
:1034D800016E000E026E000E036E000E046E000EEA
:1034E8000514096E000E06140A6E800E07140B6E82
:1034F8007F0E08140C6E09500A100B100C10D8A47B
:1035080088EF1AF08AEF1AF092EF1AF0000E056EA3
:10351800000E066E000E076E000E086E05500118AC
:103528000FE1065002180CE10750031809E1085092
:103538000418D8B4A2EF1AF0A4EF1AF0A7EF1AF003
:10354800D890A8EF1AF0D8801200A7C0ABF0A8C096
:10355800ACF0000E0001D66F000ED56FC7EF1AF061
:10356800A5C097F0A6C098F0AB0E996F000E9A6FA1
:10357800A9C09BF0AAC09CF079EC0CF0000197510F
:10358800D5279851D623ABC0F6FFACC0F7FF08008B
:10359800F5500009D8A4D3EF1AF0D5EF1AF0B4EF1C
:1035A8001AF0D5C0A5F0D6C0A6F0120003C007F0E7
:1035B80004C008F001C009F002C00AF00750056E07
:1035C8000850066E074A082A05C0F6FF06C0F7FF2E
:1035D800F86A09C0D9FF0AC0DAFF094A0A2A070EA1
:1035E800F76403D00800F55005D0F6CFE1FFF7CF18
:1035F800E2FFE750DF6EDF50D8A405EF1BF007EFBE
:103608001BF0E2EF1AF01200056E05C003F0020E7F
:10361800046E032A12EF1BF0D8900436032E10EF25
:103628001BF03C0E0416C250030B0410C26EC2827B
:10363800C2B221EF1BF023EF1BF01CEF1BF00D0EA5
:10364800036EFC0EE82EFED7032EFCD7C450046E82
:10365800036AC3500324016E000E0420026E120098
:10366800B10E0001B56F000EB66FADC0B7F0AEC0B9
:10367800B8F0000EBB6F000EBA6F000EC16F000EDF
:10368800C06FB70EA56F000EA66FAFC0A7F0B0C091
:10369800A8F0B50EA96F000EAA6FA9EC1AF00001E8
:1036A800BA51AD25D96EBB51AE21DA6E000EDF6E70
:1036B8001200010E076E200E01180210D8B467EF31
:1036C8001BF069EF1BF082EF1BF0F70E036EFF0E85
:1036D800046E01C005F002C006F003500526045030
:1036E8000622065009E1050E055CD8A07EEF1BF006
:1036F80080EF1BF082EF1BF0000E076E07C001F091
:10370800026A1200BF0E096EFF0E0A6E07C00BF0A8
:1037180008C00CF009500B260A500C220C5007E187
:103728001A0E0B5CD8B09BEF1BF09DEF1BF0A4EFBB
:103738001BF0200E0710076E0850086EA8EF1BF04C
:1037480007C007F008C008F01200000E2C1A000E7F
:103758002D1A000E2E1A800E2F1A28C001F029C02B
:1037680002F02AC003F02BC004F02CC005F02DC0D5
:1037780006F02EC007F02FC008F019EC0AF001C0BF
:1037880028F002C029F003C02AF004C02BF0120070
:10379800000E106E000E0F6EDDEF1BF00EC001F074
:1037A800026A0CC003F00DC004F075EC18F00F4A63
:1037B800102A0F500A24D96E10500B20DA6EDF50F1
:1037C8000E6E0E50D8A4EBEF1BF0EDEF1BF0D2EF0E
:1037D8001BF01200BF0E036EFF0E046E01C005F051
:1037E80002C006F0035005260450062206500AE1DE
:1037F8001A0E055CD8A003EF1CF006EF1CF0010EB2
:1038080007EF1CF0000E016E026A12000150021050
:1038180003100410D8B413EF1CF015EF1CF01DEFC3
:103828001CF0000E011A000E021A000E031A800E78
:10383800041A01C001F002C002F003C003F004C082
:1038480004F01200D00E036EFF0E046E01C005F0E6
:1038580002C006F0035005260450062206500AE16D
:103868000A0E055CD8A03BEF1CF03EEF1CF0010EE1
:103878003FEF1CF0000E016E026A120001C003F057
:1038880002C004F04AEF1CF0014A022A01C0D9FF25
:1038980002C0DAFFDF50D8A454EF1CF056EF1CF03A
:1038A80048EF1CF00350015C016E04500258026E90
:1038B8001200036E01C002F0010E02160350FE0B47
:1038C8000210046E04C0C9FFC59AC5889E969EA6BC
:1038D80070EF1CF072EF1CF06BEF1CF0120001503F
:1038E8000302F3CF05F0F4CF06F001500402F350C1
:1038F800062602500302F350062605C001F006C052
:1039080002F0120001EE00F0500EEE6AE806FDE14A
:1039180000EEC9F02A0EEE6AE806FDE1000EF86E28
:10392800000192EF17F0C292C280C19AC198C18675
:10393800C184C192C180C08EC09AC088C086C0842C
:10394800C082C0901200056EE8EC1CF0000E016EFB
:103958004E0E5DEC1CF005500809C4EC1CF0DFECC1
:103968001CF012000A6E09380F0B066E0A509FEC05
:1039780019F009500F0B066E0A509FEC19F012004F
:10398800016E01C0C9FFC59AC5889E969EA6CFEF55
:103998001CF0D1EF1CF0CAEF1CF012009380938248
:1039A800C78EC68AC686C694C692C690770EC86E5B
:1039B800000EC56E1200C584C5B4E5EF1CF0E7EF34
:1039C8001CF0E0EF1CF01200C580C5B0EEEF1CF053
:0C39D800F0EF1CF0E9EF1CF012001200F0
:020000040020DA
:08000000FFFFFFFFFFFFFFFF00
:020000040030CA
:0E000000040E181EFF8381FF0FC00FE00F409B
:00000001FF
